:040000000DEF00F010
:040008000BEF07F003
:10001800FF003AEF08F0F9EF00F0600093F1D9FF24
:10002800600097F1DAFF2F0EDF6E20EE01F06451C9
:10003800D9266551DA22030EDF6E20EE06F06451F0
:10004800D9266551DA22010EDF6E20EE02F06451E6
:10005800D9266551DA22000EDF6E20EE03F06451D6
:10006800D9266551DA22040EDF6E20EE05F06451C0
:10007800D9266551DA22000EDF6E20EE04F06451B5
:10008800D9266551DA22040EDF6E62EF01F06000B6
:1000980093F1D9FF600097F1DAFF1F0EDF6E20EEB3
:1000A80001F06451D9266551DA22030EDF6E20EE85
:1000B80006F06451D9266551DA22010EDF6E20EE72
:1000C80002F06451D9266551DA22000EDF6E20EE67
:1000D80003F06451D9266551DA22040EDF6E20EE52
:1000E80005F06451D9266551DA22000EDF6E20EE44
:1000F80004F06451D9266551DA22040EDF6E62EFEE
:1001080001F0600093F1D9FF600097F1DAFF0B0E60
:10011800DF6E20EE01F06451D9266551DA22030E14
:10012800DF6E20EE06F06451D9266551DA22010E01
:10013800DF6E20EE02F06451D9266551DA22000EF6
:10014800DF6E20EE03F06451D9266551DA22040EE1
:10015800DF6E20EE05F06451D9266551DA22000ED3
:10016800DF6E20EE04F06451D9266551DA22040EC0
:10017800DF6E62EF01F0600093F1D9FF600097F144
:10018800DAFF000EDF6E20EE01F06451D9266551CA
:10019800DA22030EDF6E20EE06F06451D92665518F
:1001A800DA22010EDF6E20EE02F06451D926655185
:1001B800DA22000EDF6E20EE03F06451D926655175
:1001C800DA22040EDF6E20EE05F06451D92665515F
:1001D800DA22000EDF6E20EE04F06451D926655154
:1001E800DA22040EDF6E62EF01F060C066F061C0D3
:1001F80067F062C068F063C069F000016951000AE5
:10020800D8B449EF01F0010AD8B454EF01F0030A59
:10021800D8B45BEF01F062EF01F06751420AD8B43D
:1002280018EF01F062EF01F06651400AD8B4BFEF51
:1002380000F062EF01F067511B0AD8B426EF01F015
:1002480062EF01F06651000AD8B485EF00F062EF62
:1002580001F06751480AD8B434EF01F062EF01F0B9
:100268006651000AD8B44BEF00F062EF01F0675115
:100278006C0AD8B442EF01F062EF01F06651000A4F
:10028800D8B411EF00F062EF01F068510F0AD8B44A
:1002980011EF01F0B80AD8B41FEF01F062EF01F0D6
:1002A8006851E80AD8B42DEF01F062EF01F0685107
:1002B800DC0AD8B43BEF01F062EF01F0120090BE07
:1002C80068EF01F06AEF01F071EF01F090AC6FEFA9
:1002D80001F071EF01F073EF01F0909E909C3901ED
:1002E800A5A179EF01F07BEF01F0C6EF01F06F00F7
:1002F80008FE0CF0050E0D6ED8900C320D2E80EF16
:1003080001F00C506F0004FE0EF00F6AD8900E3604
:100318000F36D8900E360F36D8900E360F360E1090
:10032800106E0F50116E85500F0B126E130E016E6A
:10033800000E026E860E036E3F0E046E12C005F0AC
:10034800066ACDEC07F02E502F10D8B4AEEF01F0AE
:10035800B0EF01F0C1EF01F0100E056E000E066E51
:1003680002D8C1EF01F00500FA6E2E50FD6E2F5035
:10037800FE6EF850FF6EFA5012003901A591809E6A
:100388004CEF02F0A5A3CBEF01F0CDEF01F01AEF8F
:1003980002F06D00C8FF0CF0050E0D6ED8900C32FF
:1003A8000D2ED2EF01F00C506D00C4FF0EF00F6A55
:1003B800D8900E360F36D8900E360F36D8900E36A7
:1003C8000F360E101B6E0F501C6E3701F5510F0BB8
:1003D8001D6E1E0E016E000E026EF60E036E370EB7
:1003E800046E1DC005F0066ACDEC07F02E502F10E4
:1003F800D8B401EF02F003EF02F014EF02F01B0E85
:10040800056E000E066E02D814EF02F00500FA6EB3
:100418002E50FD6E2F50FE6EF850FF6EFA501200EF
:100428003901A5933701F09F4CEF02F0A5A51FEF06
:1004380002F021EF02F024EF02F0A5954CEF02F054
:10044800A5A729EF02F02BEF02F02EEF02F0A597F7
:100458004CEF02F0A5A933EF02F035EF02F038EFC8
:1004680002F0A5994CEF02F0A5AF3DEF02F03FEF87
:1004780002F042EF02F0A59F4CEF02F0A5AB47EF68
:1004880002F049EF02F04CEF02F0A59B4CEF02F0AE
:10049800120002EC09F0D28EC490330E3A01106FAC
:1004A800C4826093110EED6FADEC08F011EC09F009
:1004B8003BEC09F0400E0001606F420E616F0F0EB9
:1004C800626F000E636F9E0E646F000E656F0FEC17
:1004D80000F09E0E0001606F000E616F8C0E626F5F
:1004E8000A0E636F18EC03F0000E00016F6F010E27
:1004F800706F000E726F640E716FAA0E736F070E25
:10050800746F3C0E756F120E766F91EC08F029EC43
:1005180009F060C08CF061C08DF062C08EF063C0DD
:100528008FF0000E0001926F29EC09F000018C5148
:10053800605D866F8D516159876F8E516259886FE2
:100548008F516359896F89518811871109E1FB0E11
:10055800865DD8A0B2EF02F0B4EF02F0CEEF02F061
:10056800010E921B9251D8B4BCEF02F0BEEF02F01C
:10057800C2EF02F046EC09F0C4EF02F048EC09F0D3
:1005880029EC09F060C08CF061C08DF062C08EF07B
:1005980063C08FF08CEC06F00001A951D8B4D7EFF6
:1005A80002F0D9EF02F012EF03F042EC09F03E013D
:1005B800F881F8B1E2EF02F0E4EF02F0DDEF02F0CB
:1005C800F0510F0B0001906F6F00BCFB91F0905140
:1005D800866F91518A6F86C08BF029EC09F060C054
:1005E80066F061C067F062C068F063C069F0A9C0D6
:1005F8006AF08AC06BF08BC06CF0930E00016D6FCF
:10060800000E6E6FFEEC05F0930E0001766F000E83
:10061800776F57EC08F0000E0001A96F44EC09F061
:1006280098EF02F00DEF00F062C02EF063C02FF0DB
:100638008F501F0B80098F6E8E38E832070B040A23
:10064800D8A429EF03F02BEF03F020EF03F03F0EBF
:10065800911637010091000120EE01F06051D92672
:100668006151DA22DF50646F643B644764473701A5
:100678000351000164193F0B64193701036F6000CF
:1006880083F1D9FF600087F1DAFFDF500001646F62
:100698003701035100016419C00B64193701036F56
:1006A800000120EE06F06051D9266151DA22DF50B0
:1006B800646F6433643337010451000164197F0B9C
:1006C80064193701046F000120EE02F06051D92649
:1006D8006151DA22DF50646F643B64476447370135
:1006E800045100016419BF0B64193701046F00013C
:1006F80020EE03F06051D9266151DA22DF50646F91
:100708006447644764473701045100016419C70B03
:1007180064193701046F000120EE05F06051D926F5
:100728006151DA22DF50646F370104510001641906
:10073800F80B64193701046F000120EE04F06051D2
:10074800D9266151DA22DF50646F37010551000163
:100758006419F80B64193701056F058F059D000EA4
:10076800B86F000EB96F000EBC6F000EBD6F808AA7
:10077800808C80843901958F959D958B9599959757
:100788009595958395811F0E8F168E38E832070B45
:100798000009D8A4D2EF03F0D4EF03F0C9EF03F0B7
:1007A80012003701E0A7DBEF03F0DDEF03F0DFEF26
:1007B80003F05DEF04F0000120EE02F06B51D92642
:1007C8006C51DA22090EDF60ECEF03F0EEEF03F074
:1007D8005DEF04F06000AFF1D9FF6000B3F1DAFF1C
:1007E800DE52080EDE5CD8A0FCEF03F0FEEF03F04B
:1007F80000EF04F05DEF04F0FC0E3701E017600035
:10080800AFF1D9FF6000B3F1DAFF6F0078FF6DF048
:100818006F0074FF6EF00001D8906E336D33D8907E
:100828006E336D33D8906E336D336D513701E16F90
:100838006000AFF1D9FF6000B3F1DAFFDF500001CB
:100848006D6F070E6D17050E6E6FD8906D376E2F92
:1008580029EF04F06D513701E26FE59D000120EEAC
:1008680002F06B51D9266C51DA22DF506D6F3701D7
:10087800E55100016D19F00B6D193701E56FE60EB2
:100888000001606F370E616F030E6B25626F000EFB
:100898006C21636F20EE02F06B51D9266C51DA227D
:1008A800DF506D6F6D51646F656B71EC07F0370148
:1008B800E08712006CC060F06DC061F01CEC08F0BD
:1008C8000009D8B46AEF04F06CEF04F06FEF04F09D
:1008D800000ED1EF04F06CC066F06DC067F0000147
:1008E80020EE06F06C51D9266D51DA226F0078FFA0
:1008F80068F06F0074FF69F042EC07F066C074F0AE
:1009080067C075F06EC060F06FC061F06000B3F151
:10091800D9FF6000B7F1DAFF6F0078FF70F06F0061
:1009280074FF71F0000174517025626F7551712167
:10093800636F20EE02F06C51D9266D51DA226F00F8
:1009480078FF64F06F0074FF65F071EC07F0000148
:1009580020EE04F06C51D9266D51DA2210EE06F023
:100968006C51E1266D51E222E62A000EE522DE50A6
:10097800E65CDE50E658D8A0C4EF04F0C6EF04F0F9
:10098800D0EF04F020EE06F06C51D9266D51DA2232
:10099800000EDE6E000EDD6E010E12006CC060F0FF
:1009A8006DC061F0A5EC05F00009D8B4DEEF04F0E5
:1009B800E0EF04F0E3EF04F0000E45EF05F06CC043
:1009C80066F06DC067F0000120EE08F06C51D92682
:1009D8006D51DA226F0078FF68F06F0074FF69F0DC
:1009E80042EC07F066C074F067C075F06000B3F1C0
:1009F800D9FF6000B7F1DAFF6F0078FF70F06F0081
:100A080074FF71F0000174517025606F7551712188
:100A1800616F6EC062F06FC063F020EE02F06C513F
:100A2800D9266D51DA226F0078FF64F06F0074FFE9
:100A380065F071EC07F0000120EE04F06C51D92646
:100A48006D51DA2210EE08F06C51E1266D51E22268
:100A5800E62A000EE522DE50E65CDE50E658D8A015
:100A680038EF05F03AEF05F044EF05F020EE08F016
:100A78006C51D9266D51DA22000EDE6E000EDD6E45
:100A8800010E120005C001F006C002F0FAEC07F0F2
:100A980001C009F002C00AF005C001F006C002F06A
:100AA800DAEC08F0070AD8A45CEF05F05EEF05F071
:100AB80062EF05F0A4EF05F09AEF05F009C007F022
:100AC8000AC008F00850010AD8B475EF05F0040A06
:100AD800D8B480EF05F0030AD8B48FEF05F09AEF89
:100AE80005F00750800AD8B460EF05F0600AD8B462
:100AF8009AEF05F09AEF05F00750200AD8B49AEF5C
:100B080005F0A00AD8B49AEF05F0600AD8B49AEFB5
:100B180005F09AEF05F00750400AD8B49AEF05F0AF
:100B2800E00AD8B49AEF05F09AEF05F032EC09F034
:100B380001C026F002C027F003C028F004C029F045
:100B48001200000120EE06F06051D9266151DA2228
:100B580010EE08F06051E1266151E2226F0098FF23
:100B680064F06F0094FF65F0010E6427000E6523A2
:100B7800DE50641909E1DE506519D8B4C6EF05F0F6
:100B8800C8EF05F0F9EF05F020EE04F06051D92622
:100B98006151DA2210EE08F06051E1266151E2223B
:100BA8006F0098FF64F06F0094FF65F0010E6427F2
:100BB800000E6523DE50641907E1DE506519D8A4DC
:100BC800E8EF05F0EAEF05F0FCEF05F020EE06F09F
:100BD8006051D9266151DA22DE50DE10D8A4F7EF31
:100BE80005F0F9EF05F0FCEF05F0010EFDEF05F05B
:100BF800000E120000016D516E11D8A406EF06F028
:100C080008EF06F00AEF06F046EF06F06000B7F1CD
:100C1800D9FF6000BBF1DAFFA70EDE6E070EDD6EAE
:100C280066C060F067C061F068C062F069C063F0D8
:100C38006DC064F06EC065F074EC08F0000120EE41
:100C480006F06D51D9266E51DA226000ABF1DFFF54
:100C580020EE07F06D51D9266E51DA226C510F0B38
:100C6800DF6E20EE08F06D51D9266E51DA22600051
:100C7800AFF1DFFF20EE02F06D51D9266E51DA2276
:100C8800060EDF6E120060009FF1D9FF6000A3F12D
:100C9800DAFF6000A7F1DEFF6000ABF1DDFF0001C5
:100CA80020EE02F06751D9266851DA226000B7F1C8
:100CB800DEFF6000BBF1DDFF6BC060F06CC061F06F
:100CC8006DC062F06EC063F0D0EC06F0000120EE5B
:100CD80004F06751D9266851DA22600083F1DEFFFB
:100CE800600087F1DDFF20EE06F06751D9266851D4
:100CF800DA22000EDE6E000EDD6E20EE08F067517F
:100D0800D9266851DA22000EDE6E000EDD6E120062
:100D1800AA0E0001606F000E616F1CEC08F000095C
:100D2800D8A499EF06F09BEF06F0CFEF06F020EE7F
:100D3800A7F002D8AAEF06F00500FA6EDE50FD6EA5
:100D4800DE50FE6EF850FF6EFA5012000009D8B45B
:100D5800B0EF06F0B2EF06F0CFEF06F0AA0E0001F2
:100D68006C6F000E6D6F760E6E6F000E6F6F5EEC1F
:100D780004F0760E00016B6F000E6C6F02D8CFEF97
:100D880006F00500FA6EA551FD6EA651FE6EF850EC
:100D9800FF6EFA5012001200000E0001666F000E7E
:100DA800656F62516311D8B4DCEF06F0DEEF06F030
:100DB80006EF07F0010E646FE6EF06F0D890623791
:100DC8006337642B63AFEBEF06F0EDEF06F0E2EF6D
:100DD80006F0D890653766376251605D6351615996
:100DE800D8A0F9EF06F0FBEF06F000EF07F062512C
:100DF800605F6351615B6581D89063336233642FB0
:100E0800EDEF06F065C060F066C061F012003901D0
:100E1800A551D8B412EF07F014EF07F016EF07F05A
:100E280063EC01F03A0147B11CEF07F01EEF07F041
:100E38002CEF07F047B323EF07F025EF07F02CEF6F
:100E480007F047A52AEF07F02CEF07F02EEF07F081
:100E58009FEC07F0390193AF34EF07F036EF07F056
:100E680041EF07F0A3AF3BEF07F03DEF07F041EF8D
:100E780007F0EFEC08F03901A39F1100000120EE04
:100E880004F06651D9266751DA22DE50685DDE50DB
:100E98006959D8A052EF07F054EF07F05AEF07F05E
:100EA800000E676F000E666F70EF07F020EE02F01D
:100EB8006651D9266751DA226F0078FF60F06F001B
:100EC80074FF61F068C062F069C063F0C4EC08F0B8
:100ED80060C066F061C067F0120062C069F063C06C
:100EE8006AF060C067F061C068F090EF07F06000DA
:100EF800A7F1D9FF6000ABF1DAFFDF50666F694BED
:100F08006A2B60009FF1D9FF6000A3F1DAFF60004F
:100F18009BF1DFFF674B682B00016407D8A06507CA
:100F2800642906E16529D8A49CEF07F09EEF07F035
:100F38007BEF07F012003A0147A1A5EF07F0A7EFF2
:100F480007F0AEEF07F04791030E0001A96F170EE7
:100F58003E01F16F3A0147A3B4EF07F0B6EF07F08F
:100F6800BDEF07F04793010E0001A96F150E3E0172
:100F7800F16F3A0147A5C3EF07F0C5EF07F0CCEFD3
:100F880007F04795020E0001A96F160E3E01F16F9A
:100F9800120003C009F004C00AF001C007F002C043
:100FA80008F0ECEF07F0600027F0D9FF60002BF0A5
:100FB800DAFFDF500B6E094A0A2A60001FF0D9FFDA
:100FC800600023F0DAFF60002FF0DFFF074A082AED
:100FD8000506D8A00606052806E10628D8A4F7EFD6
:100FE80007F0F9EF07F0D7EF07F0120001500210F1
:100FF800D8A401EF08F003EF08F009EF08F0000E9D
:10100800026E000E016E1BEF08F0600007F0D9FFBA
:1010180060000BF0DAFF6F0078FF03F06F0074FFD9
:1010280004F0E00E0314016E070E0414026E1200A1
:10103800000120EE06F06051D9266151DA2210EE47
:1010480008F06051E1266151E222DE50E61807E11E
:10105800DE50E618D8A433EF08F035EF08F038EF83
:1010680008F0010E39EF08F0000E120000EE00F152
:10107800640EEE6AE806FDE100EEA5F00F0EEE6ADA
:10108800E806FDE100EE26F0160EEE6AE806FDE140
:10109800080ED56E000ED66E000ED76E000EF86ED6
:1010A80000014DEF02F0AA0E0001606F000E616FA3
:1010B800A5EC05F00009D8B464EF08F066EF08F075
:1010C80068EF08F073EF08F0AA0E00016C6F000ECD
:1010D8006D6F76C06EF077C06FF0D2EC04F012003E
:1010E800000120EE03F06451D9266551DA22600030
:1010F8008BF1DFFF20EE04F06451D9266551DA2226
:10110800600087F1DFFF20EE05F06451D9266551B4
:10111800DA22600083F1DFFF120073C0A5F074C00B
:10112800A6F075C0A7F076C0A8F0AA0E0001676FF8
:10113800000E686F6FC069F070C06AF071C06BF024
:1011480072C06CF0000E6E6F0B0E6D6F47EC06F000
:101158001200C384C382C380C48AC48CC48E3A017B
:10116800508550835081608B608D608F3E01F88F71
:10117800F889F851F30B0409F86FF00EFD17120007
:101188000001605162036F00CCFF64F06F00D0FF74
:1011980065F060516303F350652761516203F350B2
:1011A800652764C060F065C061F01200015002104C
:1011B800D8A4E1EF08F0E3EF08F0E6EF08F0000E3E
:1011C800EEEF08F0600007F0D9FF60000BF0DAFFDF
:1011D800DF501F0B1200400E30267D0E3064F7EFF3
:1011E80008F0F9EF08F001EF09F07D0E305E010E0E
:1011F8002A26000E2B222C222D2212003901938F31
:10120800B89EB898F00EB816F00EB916B9501F0B64
:10121800A009B96EB998B88E12003901908F3A01B9
:10122800409140934095C280C282C28445814583E3
:10123800458512003701E0A724EF09F027EF09F0F0
:10124800010E28EF09F0000E12002AC060F02BC032
:1012580061F02CC062F02DC063F012002AC001F0CA
:101268002BC002F02CC003F02DC004F01200C39470
:10127800BB94C396BB96C398BB981200BB88120058
:0C128800BB981200BB861200BB9612003F
:020000040020DA
:10000000FF0FFF0FFF0FFF0FFF0FFF0FFF0FFF0F80
:020000040030CA
:0A000000ECFFF7FF9FFFFFFFFFFF7B
:00000001FF
